:100000000C946D000C9495000C9495000C94950044
:100010000C9495000C9495000C9495000C9495000C
:100020000C9495000C9495000C9495000C949500FC
:100030000C9495000C9495000C9495000C949500EC
:100040000C9484060C9495000C94F4060C94CE0643
:100050000C9495000C9495000C9495000C949500CC
:100060000C9495000C949500638253630001080082
:1000700006040001000000002300260029004500BE
:100080000082000040002000000000240027002A19
:100090000000000000250028002B000404040404D4
:1000A0000404040202020202020303030303030125
:1000B00002040810204080010204081020010204FC
:1000C00008102000000008000201000003040700DF
:1000D0000000000000000000BF0D11241FBECFEF84
:1000E000D8E0DEBFCDBF11E0A0E0B1E0E6EDF4E284
:1000F00002C005900D92A63FB107D9F724E0A6EF04
:10010000B1E001C01D92AB3EB207E1F710E0CDE6D1
:10011000D0E004C02197FE010E94660FCC36D107C3
:10012000C9F70E946B070C9469120C940000CF93DE
:10013000DF932091E7042223C1F0FC0120812223D8
:10014000A1F0C7EED4E0A3EEB4E09C012C5F3F4FDA
:10015000899141919D918427892339F4E217F3070E
:10016000B9F781E0DF91CF91089580E0FBCF90E077
:10017000FC01ED53FF4F2491FC01E155FF4F3491F9
:10018000FC01E556FF4FE491EE23C9F0222339F03C
:10019000233001F1A8F4213019F1223029F1F0E0E7
:1001A000EE0FFF1FEF56FF4FA591B4918FB7F89454
:1001B000EC91611126C030953E233C938FBF08958A
:1001C0002730A9F02830C9F0243049F78091800009
:1001D0008F7D03C0809180008F7780938000DFCF78
:1001E00084B58F7784BDDBCF84B58F7DFBCF8091C5
:1001F000B0008F778093B000D2CF8091B0008F7D18
:10020000F9CF3E2BDACFCF93DF9390E0FC01E1559D
:10021000FF4F249185569F4FFC0184918823D1F094
:1002200090E0880F991FFC01E957FF4FA591B49109
:10023000FC01EF56FF4FC591D49161110EC09FB7DD
:10024000F8948C91E22FE0958E238C932881E22301
:10025000E8839FBFDF91CF9108958FB7F894EC9119
:10026000E22BEC938FBFF6CF3FB7F8948091DF0479
:100270009091E004A091E104B091E20426B5A89B1E
:1002800005C02F3F19F00196A11DB11D3FBFBA2F28
:10029000A92F982F8827BC01CD01620F711D811DE8
:1002A000911D42E0660F771F881F991F4A95D1F76D
:1002B00008952FB7F8946091DB047091DC0480916D
:1002C000DD049091DE042FBF0895AF92BF92CF92CC
:1002D000DF92EF92FF920F931F93CF93DF936C0106
:1002E0007B018B01040F151FEB015E01AE18BF08E7
:1002F000C017D10759F06991D601ED91FC91019099
:10030000F081E02DC6010995892B79F7C501DF91B0
:10031000CF911F910F91FF90EF90DF90CF90BF9002
:10032000AF900895FC01538D448D252F30E0842F2C
:1003300090E0821B930B541710F0CF96089501970D
:100340000895FC01918D828D981761F0A28DAE0FFA
:10035000BF2FB11D5D968C91928D9F5F9F73928F81
:1003600090E008958FEF9FEF0895FC01918D828DAD
:10037000981731F0828DE80FF11D858D90E008957A
:100380008FEF9FEF0895FC01918D228D892F90E0D2
:10039000805C9F4F821B91098F739927089581E09C
:1003A00092E00E94C30121E0892B09F420E0822F12
:1003B000089580E090E0892B29F00E94CF018111FF
:1003C0000C9400000895FC01A48DA80FB92FB11D55
:1003D000A35ABF4F2C91848D90E001968F7399277B
:1003E000848FA689B7892C93A089B1898C91837059
:1003F00080648C93938D848D981306C00288F38952
:10040000E02D80818F7D80830895EF92FF920F937E
:100410001F93CF93DF93EC0181E0888F9B8D8C8DB0
:1004200098131AC0E889F989808185FF15C09FB7A4
:10043000F894EE89FF896083E889F9898081837067
:10044000806480839FBF81E090E0DF91CF911F9116
:100450000F91FF90EF900895F62E0B8D10E00F5F37
:100460001F4F0F731127E02E8C8D8E110CC00FB60D
:1004700007FCFACFE889F989808185FFF5CFCE01A5
:100480000E94E301F1CFEB8DEC0FFD2FF11DE35A3C
:10049000FF4FF0829FB7F8940B8FEA89FB89808128
:1004A0008062CFCFCF93DF93EC01888D8823B9F0A2
:1004B000AA89BB89E889F9898C9185FD03C080816F
:1004C00086FD0DC00FB607FCF7CF8C9185FFF2CFEC
:1004D000808185FFEDCFCE010E94E301E9CFDF915E
:1004E000CF9108958091F6029091F702982789277D
:1004F000982744972091140330E044E035952795E0
:100500004A95E1F7220F331F220F331F821B930BF3
:1005100097FF02C090E080E0089520910A03309197
:10052000080330930A032093080320910B033091B2
:10053000090330930B0320930903E6EEF2E021A5B3
:10054000820F911D25A585A7662381F021A7892FFC
:100550009927319722E0E23EF20789F710921803BB
:100560001092190380E580931403089511A6EFCF2C
:100570000F931F93CF93DF9370E06A517D4F8A01F1
:10058000075F1F4F213029F0223031F48A010250D9
:10059000110930E020E003C000E010E09801EB0119
:1005A000FA01E230F10558F0A991B991BA27AB27C9
:1005B000BA270A0F1B1F211D311D3297F2CFFA01F6
:1005C000EE7F6E0F7F1F4E175F0769F0FB014081C2
:1005D00050E070E060E0762F652F542F4427040F21
:1005E000151F261F371FA9016627772741155105BB
:1005F0006105710519F022273327F1CF0095109579
:10060000E82FF0E0EA51FD4F10830183DF91CF9195
:100610001F910F910895E6EEF2E0108E118E80E4A6
:10062000848B158A868B20E044E150E06EE088E1FF
:100630000C94B8028EBD0DB407FEFDCF089561E0A5
:100640008091F9010E94B70078940895F89460E0D1
:100650008091F9010C94B7000F931F93CF93DF9310
:10066000EC018B010E9426032097B9F08AE30E94D7
:100670001A031EBCF801CE01019739F00DB407FE34
:10068000FDCF2EB51EBC2193F7CF2197C00FD11FF0
:100690000DB407FEFDCF8EB58883DF91CF911F91FA
:1006A0000F910C941F031F93CF93DF93182FC62F26
:1006B000D42F0E9426038C2F8F71812B0E941A0346
:1006C0008D2F0E941A03DF91CF911F910C941F036D
:1006D000CF93C82FC0768091F8018C1799F043E032
:1006E0006FE180EA0E945303C093F8014C2F50E061
:1006F00085E0559547958A95E1F76FE180E8CF91C0
:100700000C945303CF910895CF93DF93C82FD62F26
:100710000E9468034D2F6C2F80E4DF91CF910C94E1
:100720005303CF93DF93C82FD72F0E9484036D2FDD
:1007300081E08C0FDF91CF910C948403CF93C82F6D
:100740000E9468030E9426038C2F8F710E941A0357
:1007500080E00E941A03C7FF03C080E00E941A03D2
:10076000CEB50E941F038C2FCF910895CF93DF93B6
:10077000EC0140E86FE180E80E94530340E86FE13C
:1007800080EA0E9453034AE06CE180EA0E9453032E
:1007900060E07CE082E00E949103BE01745F86E02D
:1007A0000E94910340E060E08AE70E9453030E94A8
:1007B00026032097B1F08AE70E941A038091E6028F
:1007C0008EBDE7EEF2E0CA51DD4FEC17FD0731F0C8
:1007D00081910DB407FEFDCF8EBDF7CF0DB407FE9E
:1007E000FDCF0E941F0348E06FE180E80E945303A1
:1007F000D0E0C0E08CE10E949E038A7029F421962B
:10080000C83E83E0D807B1F78CE10E949E0381FDCA
:1008100003C0C83ED34039F448E06FE180EADF917D
:10082000CF910C945303DF91CF9108950F931F93B1
:10083000CF93DF938C018896C6EED2E0988B898B9C
:100840000E940B031AAA1BAAA801445E5F4F22E074
:100850006AE182E30E94B802C801C696DF91CF9197
:100860001F910F910C94B603CF93DF93EB01682F88
:1008700084ED0E948403BE0186ED0E9491038AEEFE
:100880000E949E0380FDFBCFDF91CF910895CF9210
:10089000DF92EF92FF920F931F938634910568F1D8
:1008A00020910903233449F5C0901403D090150317
:1008B000E0901603F09017030091A8021091A9028E
:1008C0002091AA023091AB02C016D106E206F306CF
:1008D000A1F4E0E0F4E08A519D4F9F012E5F3F4F6D
:1008E00041815081553319F45281651771F0F90136
:1008F000E40FF11DE817F90780F380E01F910F91D5
:10090000FF90EF90DF90CF90089581E0F7CFE091D6
:10091000F601F091F7019F012F5F3F4F3093F701F0
:100920002093F60180830895FF920F931F93CF9336
:10093000DF93162FF42E052F0E948704812F0E942B
:100940008704CF2DD02F115020F089910E94870469
:10095000FACFDF91CF911F910F91FF900895DC01A5
:1009600096E0FB0101900D929A95E1F70895BC0184
:1009700086EE92E00E94AF0469EB72E08CEE92E0AA
:100980000C94AF04DC0194E0FB0101900D929A9568
:10099000E1F708958CEE92E00E94B70460E073E006
:1009A00084E093E00E94C20467EE74E080E093E08C
:1009B0000E94C2040C940B03262F20612093150380
:1009C000643021F0009711F481E090E061E00E9432
:1009D0008D021092F60288E28093F7020E94CA0408
:1009E00084E0809316031092170322E04CE150E05C
:1009F0006AE182E30E94B80286E390E00C94B603B9
:100A0000CF93DF93EB010E94B704BE0184E093E033
:100A10000E94C20467EE74E080E093E0DF91CF9122
:100A20000C94C204CF93DF93EB0144E050E0BC018F
:100A300082E093E00E947B0F892B49F46CEF72E017
:100A4000CE010E94AF0481E0DF91CF91089580E054
:100A5000FBCF0F931F93CF938C0182E491E00E9410
:100A6000B704E6EEF2E088E08487C6E0C58748E098
:100A700050E06CE670E084EF92E00E94EC0DE6E05E
:100A8000F3E0DF011D92CA95E9F769EB72E08CEFA4
:100A900092E00E94AF04B8018CE093E00E94C2048F
:100AA00067EE74E082E093E00E94C2048AE290E084
:100AB000CF911F910F910C94B603EF92FF920F9379
:100AC0001F93CF93DF938C01E6EEF2E086E191E095
:100AD000DF019C011D9221503040E1F78091B80266
:100AE000C2E4D1E0833011F4C3EAD2E0CE010E9427
:100AF0009700BE01882309F4ACC083EC92E00E9409
:100B000000058881807F803E91F088819981AA814B
:100B1000BB818F3F9F4FAF4FBF4F49F044E050E044
:100B2000BE018FEB92E00E947B0F892B31F462E4CF
:100B300071E086EE92E00E94AF0488E08093F202BA
:100B40001092F30249E050E06EE770E084EF92E02B
:100B50000E94EC0D1092F60281E18093FD0210924A
:100B60000A0383E480930B031092080384E48093C8
:100B7000090310920C0310920E0310920F0362E40B
:100B800071E086EE92E00E94AF0481E08093100352
:100B90008093110386E0809312038091A8029091C4
:100BA000A902A091AA02B091AB0280931403909382
:100BB0001503A0931603B0931703C091B802C33076
:100BC00031F467EE74E08CE193E00E94C20469EBBB
:100BD00072E08CE293E00E94AF048CEF93E090937C
:100BE000F7018093F601E8E6F0E084910E94870423
:100BF000E9E6F0E084910E948704EAE6F0E084915F
:100C00000E948704EBE6F0E084910E94870485E36C
:100C10000E94870481E00E94870483E0C11101C023
:100C200081E00E9487048DE30E94870487E00E9490
:100C3000870481E00E94870489EBE82E82E0F82E89
:100C4000C7E0C15049F0D7018D917D010E94870412
:100C5000F8CF89EC92E053CF80910001882371F0A6
:100C600060E071E0FB0101900020E9F7BF016150F5
:100C7000714040E051E08CE00E94940401151105A0
:100C800059F0A80164E082E30E94940443EA52E030
:100C900064E086E30E94940487E30E94870483E073
:100CA0000E94870481E00E94870483E00E948704F9
:100CB00086E00E9487048FEF0E948704C091F601AE
:100CC000D091F701C051D340CE014C969093F602DB
:100CD0008093F7020E940B03CE01089690930C03B9
:100CE00080930D03AE01405F5F4F21E06AE188E22F
:100CF0000E94B802CE018A96DF91CF911F910F9189
:100D0000FF90EF900C94B6031F920F920FB60F92C4
:100D100011242F933F938F939F93AF93BF93809111
:100D2000DB049091DC04A091DD04B091DE043091ED
:100D3000DA0423E0230F2D3758F50196A11DB11DCC
:100D40002093DA048093DB049093DC04A093DD0409
:100D5000B093DE048091DF049091E004A091E1045F
:100D6000B091E2040196A11DB11D8093DF04909320
:100D7000E004A093E104B093E204BF91AF919F918E
:100D80008F913F912F910F900FBE0F901F9018954C
:100D900026E8230F0296A11DB11DD2CF1F920F92FC
:100DA0000FB60F9211242F933F934F935F936F933E
:100DB0007F938F939F93AF93BF93EF93FF9381E0C4
:100DC00092E00E94E301FF91EF91BF91AF919F915B
:100DD0008F917F916F915F914F913F912F910F90E4
:100DE0000FBE0F901F9018951F920F920FB60F9283
:100DF00011242F938F939F93EF93FF93E091110210
:100E0000F09112028081E0911702F091180282FDA8
:100E10001BC0908180911A028F5F8F7320911B02FB
:100E2000821741F0E0911A02F0E0EF5FFD4F958FDD
:100E300080931A02FF91EF919F918F912F910F90C4
:100E40000FBE0F901F9018958081F4CFCF92DF9244
:100E5000EF92FF920F931F93E82FF92F05C00150D7
:100E600011092109310961F1908196239417B9F391
:100E700005C0015011092109310911F19081962312
:100E80009413F7CFC12CD12CE12CF12C0AC08FEF99
:100E9000C81AD80AE80AF80A0C151D052E053F05E0
:100EA00079F080818623841791F36C2D7D2D8E2D12
:100EB0009F2D1F910F91FF90EF90DF90CF9008959D
:100EC00060E070E080E090E01F910F91FF90EF9064
:100ED000DF90CF900895CF93DF93CDB7DEB7C650A4
:100EE000D1400FB6F894DEBF0FBECDBF789484B565
:100EF000826084BD84B5816084BD85B5826085BD16
:100F000085B5816085BD80916E00816080936E00A3
:100F10001092810080918100826080938100809195
:100F20008100816080938100809180008160809346
:100F300080008091B10084608093B1008091B00006
:100F400081608093B00080917A00846080937A0001
:100F500080917A00826080937A0080917A0081602B
:100F600080937A0080917A00806880937A00109252
:100F7000C100E0911102F091120282E08083E091C1
:100F80000D02F0910E021082E0910F02F09110021A
:100F90008FEC808310921902E0911502F0911602F5
:100FA00086E08083E0911302F091140280818061D9
:100FB0008083E0911302F091140280818860808325
:100FC000E0911302F0911402808180688083E091A7
:100FD0001302F091140280818F7D808361E087E0AD
:100FE0000E94030160E086E00E9403011092E30288
:100FF00087E390E0C12CD12C7601C3940097C1F017
:10100000FC0123E0F595E7952A95E1F7E650FE4FC0
:10101000282F2770B701A60104C0440F551F661F73
:10102000771F2A95D2F72081242B20830197E6CFC2
:1010300068E271E089EB92E00E94AF0484EF91E0F6
:1010400090939F0280939E020CB406FC25C061E041
:101050008AE00E94030161E08AE00E94B70061E03B
:101060008BE00E94030161E08DE00E94030160E0DB
:101070008CE00E94030161E08BE00E94B70060E019
:101080008BE00E94B70060E08DE00E94B70080E531
:101090008CBD8DB581608DBD8AE08093F90161E0E2
:1010A0000E9403010E941F034FEF60E08FEF0E9438
:1010B00053030E9434016B017C0182E0882E912C45
:1010C000A12CB12C0E9434016C197D098E099F0955
:1010D000683E734081059105A8F328EEC20E23E017
:1010E000D21EE11CF11C8A9489288A288B2829F0B9
:1010F000812C912C54018394E5CF0E9426038DE12D
:101100000E941A0380E00E941A031EB50E941F036A
:10111000112399F370E060E088E00E94910370E091
:1011200060E08CE00E9491036FEF7BE08AE00E9418
:10113000910360E07CE084E00E9491036FEF71E135
:1011400086E00E94910366E774E084E10E94340423
:1011500061EB88E30E9484036FE370E388E20E94FE
:10116000910369EF77EF80E30E94910361E080ECE7
:101170000E94840342E362EC80E80E94530362E130
:101180007CE086EC0E94910362E184EC0E9484037F
:101190006CED75E08AEC0E9491036091B90284EED7
:1011A0000E9484036091BA0285EE0E9484036091DC
:1011B000BB0282EE0E9484036091BC0283EE0E9417
:1011C00084036091BD0280EE0E9484036091BE02A0
:1011D00081EE0E94840360E071E080E10E943404AB
:1011E0008FE10E94680340EC6BE180E80E945303AA
:1011F00044E06FE180E80E94530382E70E949E036F
:101200001092E30264E271E087EE94E00E94C2046F
:101210001092E1021092E00281E08093E20260E22B
:1012200071E08CED92E00E94C204E7EEF4E023EE60
:1012300034E04FEB52E09191D9018D919D01809561
:10124000892BDA018D93AD01B4E0EB3EFB0799F7F2
:101250005E01E1E0AE0EBE1ECE0101967C01B8E457
:101260002B2EB1E03B2E13E0912E60E087E00E9430
:10127000B70083E090E00197F1F761E087E00E941A
:10128000B70083E290E00197F1F760E087E00E9409
:10129000B700E5EBF0E06491E1EAF0E08491E82F3B
:1012A000F0E0EE0FFF1FEC58FF4F8591949100E4A2
:1012B00012E42FE030E0462F0E94260761157105E9
:1012C0008105910529F06F5F7F4F8F4F9F4F9F7072
:1012D0000E94620E26E933E44BE05DE30E94C60EF5
:1012E00020E030E040E05FE30E94C60E0E942A0E3C
:1012F000CB014AE0B5010E94F50DBF92AF923F923B
:101300002F92FF92EF920E94910F0F900F900F90EB
:101310000F900F900F908091A202882379F0609136
:10132000A0027091A1026115710509F044C16FEF2F
:101330007BE08CE00E9491031092A20289E30E945C
:101340009E0310E000E0882309F445C06091A002EC
:101350007091A10280E00E949103BE0165507F4F11
:1013600086E090E00E942C03C550DF4F8881998170
:10137000CB5FD0409093A1028093A002C150DF4F79
:1013800088819981CF5FD0408C010078112787FF39
:1013900016C0C350DF4F88819981CD5FD04004973C
:1013A00000919E0210919F02015011098017910730
:1013B00008F48C0166EE72E0C8010E942C03F8016B
:1013C000EA51FD4F108281E08093A20240E46EE179
:1013D00080E80E9453038091E302882369F08091A2
:1013E000B802823009F4F0C008F0E8C0882309F49C
:1013F00073C1813009F48FC10115110509F01CC2B8
:101400008091E202857029F18091E0029091E102E1
:10141000892BF9F461E184ED0E94840361E082ED9F
:101420000E9484038AEE0E949E0380FDFBCF60E051
:1014300082ED0E94840389ED0E949E0382FF09C011
:101440008CED92E00E9429058091E20288608093F1
:10145000E2028091E0029091E10201969093E10214
:101460008093E0028091DB02813009F06DC08091B1
:10147000E20281FF69C082E08093DB0280912F014C
:101480008F5F80932F01182F1F7181ED92E00E94D2
:10149000970061ED72E0882309F4CBC183EC92E000
:1014A0000E94000508E00093F2021092F30249E066
:1014B00050E06EE770E084EF92E00E94EC0D8CE269
:1014C0008093F70286E08093FD020E940B03109246
:1014D0000A0310920B038BE0809308031093090317
:1014E000ECE0F3E0DF011D920A95E9F780912E010F
:1014F00080930E038D5F80932E0180E6809314030A
:1015000082E08093150390921603109217031092B5
:1015100018031092190310921A0310921B03809360
:101520001C0394E090931D0380931E0386E2809336
:101530001F0322E040E250E06AE182E30E94B80229
:101540008AE390E00E94B60387ED92E00E94970044
:10155000882379F08091D60281110BC08091D50249
:10156000811107C087ED92E00E94290581E08093F8
:10157000D50281ED92E00E949700882379F0809156
:10158000D00281110BC08091CF02811107C081ED83
:1015900092E00E94290581E08093CF02E0E0F0E034
:1015A000EF2B09F462CE0E94CF01882309F457CEB5
:1015B0000E94000054CE61507109BBCE833009F403
:1015C00056C0843009F018CF65E0C8010E94470476
:1015D000882309F4CBC08091A702811108C088E359
:1015E0000E949E03682F6E7F88E30E94840360E25E
:1015F00073E087EE94E00E94C204E0E0F4E0C801EA
:101600008A519D4F3C016F0192E0C90ED11C81802F
:101610008081863009F4FCC008F0BFC0813009F435
:10162000EDC0833009F4F0C0F601E80DF11DE615B8
:10163000F70548F30E9459016093B0027093B1021C
:101640008093B2029093B3028091DC02882361F010
:101650001092E1021092E00281E08093E2026CEDD0
:1016600072E0CB010E94C2049092B802C5CE4090B5
:10167000B4025090B5026090B6027090B702FFEFCE
:101680004F165F066F067F0609F4B6CE0E94590119
:101690002091B0023091B1024091B2025091B30258
:1016A000621B730B840B950B6415750586059705F6
:1016B00008F4A2CE87EE94E00E945D0584E080935A
:1016C000B8020E9459016093AC027093AD028093FE
:1016D000AE029093AF0290CE0E9459016093A8028F
:1016E0007093A9028093AA029093AB02E7EEF4E014
:1016F00084E0DF011D928A95E9F790E080E00E9486
:101700005D0588E30E949E03682F616088E30E9464
:10171000840381E0D4CF62E0C8010E94470488239B
:1017200029F160E273E0CE0185509F4F0E94C20410
:10173000E0E0F4E0C8018A519D4FBF016E5F7F4F2A
:1017400021813081363359F483EA92E00E94C20449
:10175000CE0185509F4F0E945D0582E0B0CFFB0116
:10176000E20FF11DE817F90740F3F2CF0E9459018B
:101770002091AC023091AD024091AE025091AF0287
:10178000621B730B840B950B6131774281059105C8
:1017900008F432CE1092B8022FCE8A3331F08F3F48
:1017A00009F448CF833309F03FCF1092B40210926E
:1017B000B5021092B6021092B702F601C601049665
:1017C00020E030E0A9016191542F432F322F2227CE
:1017D000260F311D411D511D8E179F07A1F72F3F69
:1017E000AFEF3A074A075A07B9F42093B40230938F
:1017F000B5024093B6025093B70216CFB60183EEFE
:1018000094E00E94C20410CFB6018CED92E0F9CFB3
:10181000B60187ED92E0F5CFA8EEB3E00E945B0F32
:101820006093B4027093B5028093B6029093B702AE
:10183000FBCE89EC92E034CE0932110508F4AECE2D
:101840008091F202883009F0A9CE8091F3028630AF
:1018500009F04DC144E050E067EE74E08CE093E0A5
:101860000E947B0F892B09F099CE8091FB02813079
:1018700029F58CEE92E00E94B7041092FA0282E001
:101880008093FB026CEF72E086E093E00E94AF046D
:1018900069EB72E08CEF92E00E94AF0462E073E0CB
:1018A0008CE093E00E94C20467EE74E082E093E073
:1018B0000E94C2048AE290E00E94B6038091E20294
:1018C00083FF0DC01091FB02123049F469EC72E005
:1018D0008CED92E00E94120581111093E20280913A
:1018E000D602811111C08091D502882369F063EC82
:1018F00072E087ED92E00E941205882329F081E0D2
:101900008093D6021092D5028091D002811146CEEA
:101910008091CF02882309F441CE63EC72E081ED1F
:1019200092E00E941205882309F438CE81E080936A
:10193000D0021092CF0232CE0633110508F42ECE1B
:10194000863009F02BCE80910A038B3009F04BC012
:1019500044E050E061ED72E080E093E00E947B0F94
:10196000892B09F01BCE1091150385E012FD33C0C1
:101970000E9472022091DB02223001F5212F20719A
:101980001271123179F460E090E080E00E94DC0492
:1019900088E1809315039092DB0290E080E00E9442
:1019A0001604FCCD31E03093DB020196222311F0C6
:1019B00090E080E064E00E94DC04F0CD253009F482
:1019C000EDCD10FF0BC0233009F4E8CD69E001969E
:1019D0000E94DC0486E08093DB02E0CD60E00097AB
:1019E00009F4DCCDE8CF8111D9CD80910B0380358E
:1019F00009F0D4CD8090150381FE39C01092F60213
:101A00008CE28093F7020E94CA0482E1809315035E
:101A100060E081E090E00E948D0210920C03109231
:101A20000D0380912E0180930E0310920F038D5FA2
:101A300080932E0182E080931C0384E080931D0339
:101A400085E080931E0310921F0390E69093140389
:101A50008093160388E78093170322E040E250E06A
:101A60006AE182E30E94B8028AE390E085C084FEC6
:101A700095CD0E9472026C019093E5028093E4027E
:101A8000892B79F18091140390E024E09595879556
:101A90002A95E1F7880F991F880F991F82960817DA
:101AA000190708F47BCDF70101900020E9F7319781
:101AB000AF014E195F09B7018CE193E00E94880FD6
:101AC000F70101900020E9F731978F010E191F09E6
:101AD00060E0C6010E94DC0489E180931503C8011F
:101AE0005ECF80FE5BCD60E090E080E064CF0932A5
:101AF000110509F453CD811151CD8091F402853443
:101B000009F04CCD44E050E067EE74E084E093E0EF
:101B10000E947B0F892BA9F044E050E06FEB72E04C
:101B200084E093E00E947B0F892B59F044E050E061
:101B300062E471E084E093E00E947B0F892B09F05E
:101B40002DCD8091FD02813009F0F6CE8091080301
:101B5000883009F023CD0E94CA04109208038091B6
:101B60000A03883F28F090910B039F5F90930B032B
:101B7000885F80930A03C8010E94B6030FCDE1E09D
:101B8000F2E01382128288EE93E0A0E0B0E084835A
:101B90009583A683B78384E391E09183808385EC6A
:101BA00090E09587848784EC90E09787868780EC27
:101BB00090E0918B808B81EC90E0938B828B82EC18
:101BC00090E0958B848B86EC90E0978B868B118EC2
:101BD000128E138E148E0895FB01DC0102C0059055
:101BE0000D9241505040D8F70895BB274A3031F448
:101BF000992322F4BDE2909581959F4F0C94010E9C
:101C0000BB27FB015527AA27880F991FAA1FA417D6
:101C100010F0A41B83955051B9F7A05DAA3308F0CA
:101C2000A95DA193009779F7B111B1931192CB01FE
:101C30000C941A0EDC01FC01672F71917723E1F7F8
:101C4000329704C07C916D9370836291AE17BF0789
:101C5000C8F308950E94310E6894B1110C94C00E1F
:101C600008950E94A50E88F09F5798F0B92F9927E4
:101C7000B751B0F0E1F0660F771F881F991F1AF077
:101C8000BA95C9F714C0B13091F00E94BF0EB1E00F
:101C900008950C94BF0E672F782F8827B85F39F00E
:101CA000B93FCCF3869577956795B395D9F73EF410
:101CB00090958095709561957F4F8F4F9F4F0895B8
:101CC000E89409C097FB3EF49095809570956195D6
:101CD0007F4F8F4F9F4F9923A9F0F92F96E9BB278C
:101CE0009395F695879577956795B795F111F8CF08
:101CF000FAF4BB0F11F460FF1BC06F5F7F4F8F4F73
:101D00009F4F16C0882311F096E911C0772321F068
:101D10009EE8872F762F05C0662371F096E8862F00
:101D200070E060E02AF09A95660F771F881FDAF757
:101D3000880F9695879597F9089557FD9058440F09
:101D4000551F59F05F3F71F04795880F97FB991F1A
:101D500061F09F3F79F087950895121613061406D7
:101D6000551FF2CF4695F1DF08C016161706180664
:101D7000991FF1CF86957105610508940895E8943F
:101D8000BB2766277727CB0197F908950E94D90EC4
:101D90000C944A0F0E943C0F38F00E94430F20F031
:101DA000952311F00C94330F0C94390F11240C94DB
:101DB000C00E0E949D0E70F3959FC1F3950F50E0E9
:101DC000551F629FF001729FBB27F00DB11D639FED
:101DD000AA27F00DB11DAA1F649F6627B00DA11D93
:101DE000661F829F2227B00DA11D621F739FB00D39
:101DF000A11D621F839FA00D611D221F749F3327A9
:101E0000A00D611D231F849F600D211D822F762F41
:101E10006A2F11249F5750409AF0F1F088234AF01E
:101E2000EE0FFF1FBB1F661F771F881F915050408A
:101E3000A9F79E3F510580F00C94330F0C94C00E0F
:101E40005F3FE4F3983ED4F3869577956795B79511
:101E5000F795E7959F5FC1F7FE2B880F911D96952B
:101E6000879597F9089597F99F6780E870E060E09B
:101E700008959FEF80EC089500240A941616170623
:101E800018060906089500240A941216130614066B
:101E900005060895092E0394000C11F4882352F0CE
:101EA000BB0F40F4BF2B11F460FF04C06F5F7F4F86
:101EB0008F4F9F4F08950E946C0FA59F900DB49F68
:101EC000900DA49F800D911D11240895EE0FFF1F0A
:101ED0000590F491E02D0994A29FB001B39FC00139
:101EE000A39F700D811D1124911DB29F700D811D46
:101EF0001124911D0895FB01DC0104C08D91019016
:101F0000801921F441505040C8F7881B990B08955F
:101F1000FB01DC0102C001900D9241505040D8F706
:101F20000895AEE0B0E0E7E9FFE00C9440120D89BF
:101F30001E8986E08C831A8309838FEF9FE79E8337
:101F40008D83AE01475E5F4F6F89788DCE0101961C
:101F50000E94B40F2F813885020F131FF8011082E1
:101F60002E96E4E00C945C12ABE0B0E0EAEBFFE00C
:101F70000C9432127C013B018A01FC01178216820B
:101F8000838181FFC8C1CE0101965C01F701938175
:101F9000F30193FD859193FF81913F01882309F41B
:101FA00053C1853239F493FD859193FF81913F01AF
:101FB000853229F4B70190E00E94A411E7CF912C5B
:101FC000212C312CFFE1F31538F08B3211F190F414
:101FD000803209F1833229F137FC3CC020ED280F13
:101FE0002A3050F536FE20C08AE0989E200D11243C
:101FF000922E06C08D3291F0803371F7689430F8DC
:10200000F30193FD859193FF81913F018111DACF17
:1020100021C0689431F8689432F8F2CF689433F8AC
:10202000EFCF689434F8ECCFEAE02E9E200D112417
:10203000222E689435F8E4CF8E3229F436FC04C1A0
:10204000689436F8DDCF8C3619F4689437F8D8CF19
:102050008836B1F2982F9F7D95549330E0F0833607
:10206000A1F18337C1F1833509F063C02801F2E0A3
:102070004F0E511CF801C080D180692D70E036FCF4
:1020800002C06FEF7FEFC6010E948E114C01689471
:1020900037F882010AC00C5F1F4FFFE3F9838824E1
:1020A0008394912C6501E89437F833FE2DC0522CAF
:1020B0008114910471F5552009F468CFB70180E2CD
:1020C00090E00E94A4115A94F6CFF8018081898390
:1020D0000E5F1F4FE4CF2801F2E04F0E511CF801B4
:1020E000C080D180692D70E036FC02C06FEF7FEFB9
:1020F000C6010E9499114C018201D5CFB70180E23F
:1021000090E00E94A4112A942814190409F0B0F751
:10211000CECFF60137FC859137FE81916F01B70173
:1021200090E00E94A41151105A94F1E08F1A910886
:10213000BFCF843619F0893609F077C0F80137FE31
:102140006BC060817181828193810C5F1F4FF32D81
:10215000FF763F2E97FF09C0909580957095619509
:102160007F4F8F4F9F4F689437F82AE030E0A501EA
:102170000E94D411C82ECA188C2C432C36FE0CC0D9
:10218000E89440F8C91440F434FE05C032FC03C0A2
:10219000F32DFE7E4F2E892C44FE95C0FE01EC0DE2
:1021A000F11D8081803309F087C0242D297E422EC5
:1021B000842D8870582E43FC95C040FE8FC09C2C07
:1021C000821418F42C0C922C981844FE91C0B7017C
:1021D00080E390E00E94A41142FE09C088E790E0ED
:1021E00041FE02C088E590E0B7010E94A411C91425
:1021F00008F48AC0CA94D12C9FEFC91AD90ACA0C14
:10220000DB1CF60182916F01B70190E00E94A411DE
:10221000AC14BD04B1F74FCF60817181072E000C63
:10222000880B990B0E5F1F4F92CFD32CE894D4F8F4
:102230002AE030E0853739F1232D297FD22E8F36E1
:1022400001F148F48835A9F0F701868197812B9632
:10225000E2E10C944E12803749F08837A9F7D4FE9A
:1022600002C06894D2F820E130E00DC06894D4F840
:10227000F6CF34FE03C0822F8660D82E20E132E0F4
:1022800002C028E030E0F801D7FE0FC06081718104
:10229000828193810C5F1F4FA5010E94D411C82E2B
:1022A000CA183D2CE89437F867CF6081718190E0BF
:1022B00080E00E5F1F4FF0CF42FC02C0839478CFC6
:1022C0008394839475CF842D867809F471CFF6CFEB
:1022D000B70180E290E00E94A41183948214C0F3BD
:1022E000512C73CF522C5818821408F46ECFF8CFAB
:1022F000842D867809F47BCF8BE241FE80E247FC97
:102300008DE2B70190E071CFB70180E390E00E94C9
:10231000A4119A946CCF8FEF9FEF99CFFC01059099
:10232000615070400110D8F7809590958E0F9F1FD7
:102330000895FC016150704001900110D8F780951C
:1023400090958E0F9F1F08950F931F93CF93DF9348
:10235000182F092FEB018B8181FD09C01FEF0FEFB3
:10236000812F902FDF91CF911F910F91089582FFC0
:1023700014C02E813F818C819D81281739073CF440
:10238000E881F981CF0101969983888310838E813A
:102390009F8101969F838E83E3CFE885F985812F06
:1023A0000995892BA1F3DACFFA01AA27283051F138
:1023B000203181F1E8946F936E7F6E5F7F4F8F4F76
:1023C0009F4FAF4FB1E03ED0B4E03CD0670F781FD5
:1023D000891F9A1FA11D680F791F8A1F911DA11DBA
:1023E0006A0F711D811D911DA11D20D009F46894F3
:1023F0003F912AE0269F11243019305D3193DEF69B
:10240000CF010895462F4770405D4193B3E00FD050
:10241000C9F7F6CF462F4F70405D4A3318F0495D3B
:1024200031FD4052419302D0A9F7EACFB4E0A6951E
:102430009795879577956795BA95C9F70097610540
:10244000710508959B01AC010A2E06945795479596
:1024500037952795BA95C9F7620F731F841F951F8B
:10246000A01D08952F923F924F925F926F927F929C
:102470008F929F92AF92BF92CF92DF92EF92FF9294
:102480000F931F93CF93DF93CDB7DEB7CA1BDB0B40
:102490000FB6F894DEBF0FBECDBF09942A883988E5
:1024A00048885F846E847D848C849B84AA84B984EC
:1024B000C884DF80EE80FD800C811B81AA81B981F8
:1024C000CE0FD11D0FB6F894DEBF0FBECDBFED010C
:0624D0000895F894FFCF0F
:1024D60041726475696E6F2D454E4332386A3630E7
:1024E6002D30300000000000000000000000000059
:1024F600C0A80000C0A800647469692D30310A01C3
:10250600000000000502650192015202C301A1010B
:10251600B501FFFFFFFFFFFF485454502F312E3106
:1025260020323030204F4B0D0A436F6E74656E7447
:102536002D547970653A20746578742F68746D6CC3
:102546000D0A436F6E6E656374696F6E3A20636C35
:102556006F73650D0A0D0A3C68746D6C3E0D0A3C7E
:10256600686561643E0D0A3C6D657461206874742B
:10257600702D65717569763D27726566726573683B
:102586002720636F6E74656E743D2733273E0D0AF0
:102596003C2F686561643E0D0A3C626F64793E0DAE
:1025A6000A44697374616E63653A20257320636D0E
:1025B6000D0A3C2F626F64793E0D0A3C2F68746DDC
:0625C6006C3E0D0A00004E
:00000001FF
